{"abi":[{"type":"function","name":"accounts","inputs":[{"name":"","type":"uint256","internalType":"uint256"}],"outputs":[{"name":"id","type":"uint256","internalType":"uint256"},{"name":"credit","type":"uint256","internalType":"uint256"},{"name":"gweiAmount","type":"uint256","internalType":"uint256"},{"name":"ggasAmount","type":"uint256","internalType":"uint256"},{"name":"ggasDebt","type":"uint256","internalType":"uint256"},{"name":"lockedCredit","type":"uint256","internalType":"uint256"}],"stateMutability":"view"},{"type":"function","name":"buyGasExactIn","inputs":[{"name":"id","type":"uint256","internalType":"uint256"},{"name":"amountGwei","type":"uint256","internalType":"uint256"}],"outputs":[],"stateMutability":"nonpayable"},{"type":"function","name":"buyGasExactOut","inputs":[{"name":"id","type":"uint256","internalType":"uint256"},{"name":"amountGas","type":"uint256","internalType":"uint256"}],"outputs":[],"stateMutability":"nonpayable"},{"type":"function","name":"closePeriod","inputs":[{"name":"price","type":"uint256","internalType":"uint256"}],"outputs":[],"stateMutability":"nonpayable"},{"type":"function","name":"closePosition","inputs":[{"name":"id","type":"uint256","internalType":"uint256"}],"outputs":[],"stateMutability":"nonpayable"},{"type":"function","name":"convertCreditToGGas","inputs":[{"name":"id","type":"uint256","internalType":"uint256"},{"name":"gGasAmount","type":"uint256","internalType":"uint256"}],"outputs":[],"stateMutability":"nonpayable"},{"type":"function","name":"convertCreditToGWei","inputs":[{"name":"id","type":"uint256","internalType":"uint256"},{"name":"amount","type":"uint256","internalType":"uint256"}],"outputs":[],"stateMutability":"nonpayable"},{"type":"function","name":"convertGWeiToCredit","inputs":[{"name":"id","type":"uint256","internalType":"uint256"},{"name":"amount","type":"uint256","internalType":"uint256"}],"outputs":[],"stateMutability":"nonpayable"},{"type":"function","name":"currentMarketPrice","inputs":[],"outputs":[{"name":"","type":"uint256","internalType":"uint256"}],"stateMutability":"view"},{"type":"function","name":"deposit","inputs":[{"name":"id","type":"uint256","internalType":"uint256"},{"name":"amount","type":"uint256","internalType":"uint256"}],"outputs":[],"stateMutability":"nonpayable"},{"type":"function","name":"epochSettlementPrice","inputs":[],"outputs":[{"name":"","type":"uint256","internalType":"uint256"}],"stateMutability":"view"},{"type":"function","name":"epochTargetPrice","inputs":[],"outputs":[{"name":"","type":"uint256","internalType":"uint256"}],"stateMutability":"view"},{"type":"function","name":"isClosed","inputs":[],"outputs":[{"name":"","type":"bool","internalType":"bool"}],"stateMutability":"view"},{"type":"function","name":"mintGGas","inputs":[{"name":"id","type":"uint256","internalType":"uint256"},{"name":"mintedGGasAmount","type":"uint256","internalType":"uint256"}],"outputs":[],"stateMutability":"nonpayable"},{"type":"function","name":"payDebt","inputs":[{"name":"id","type":"uint256","internalType":"uint256"},{"name":"amount","type":"uint256","internalType":"uint256"}],"outputs":[],"stateMutability":"nonpayable"},{"type":"function","name":"positions","inputs":[{"name":"","type":"uint256","internalType":"uint256"}],"outputs":[{"name":"id","type":"uint256","internalType":"uint256"},{"name":"amountGwei","type":"uint256","internalType":"uint256"},{"name":"amountGGas","type":"uint256","internalType":"uint256"},{"name":"priceMin","type":"uint256","internalType":"uint256"},{"name":"priceMax","type":"uint256","internalType":"uint256"}],"stateMutability":"view"},{"type":"function","name":"sellGasExactIn","inputs":[{"name":"id","type":"uint256","internalType":"uint256"},{"name":"amountGas","type":"uint256","internalType":"uint256"}],"outputs":[],"stateMutability":"nonpayable"},{"type":"function","name":"sellGasExactOut","inputs":[{"name":"id","type":"uint256","internalType":"uint256"},{"name":"amountGwei","type":"uint256","internalType":"uint256"}],"outputs":[],"stateMutability":"nonpayable"},{"type":"function","name":"setCurrentMarketPrice","inputs":[{"name":"_currentMarketPrice","type":"uint256","internalType":"uint256"}],"outputs":[],"stateMutability":"nonpayable"},{"type":"function","name":"setEpochTargetPrice","inputs":[{"name":"_epochTargetPrice","type":"uint256","internalType":"uint256"}],"outputs":[],"stateMutability":"nonpayable"},{"type":"function","name":"supply","inputs":[{"name":"id","type":"uint256","internalType":"uint256"},{"name":"amountGwei","type":"uint256","internalType":"uint256"},{"name":"amountGGas","type":"uint256","internalType":"uint256"},{"name":"priceMin","type":"uint256","internalType":"uint256"},{"name":"priceMax","type":"uint256","internalType":"uint256"}],"outputs":[],"stateMutability":"nonpayable"},{"type":"function","name":"withdraw","inputs":[{"name":"id","type":"uint256","internalType":"uint256"},{"name":"amount","type":"uint256","internalType":"uint256"}],"outputs":[],"stateMutability":"nonpayable"}],"bytecode":{"object":"0x608060405234801561001057600080fd5b50610e40806100206000396000f3fe608060405234801561001057600080fd5b50600436106101425760003560e01c8063abb17565116100b8578063debccce61161007c578063debccce6146102b6578063e2bbb158146102c9578063eb90c119146102dc578063f2a40db8146102ef578063f8d82f391461035f578063fd4011341461037257600080fd5b8063abb1756514610260578063c2b6b58c14610273578063c3d4f50114610290578063c7f5f4e81461018b578063ddf427a1146102a357600080fd5b806352c754b21161010a57806352c754b2146101b057806362cc01e7146101b957806370eabfde146101cc57806376b2d76c146101d557806399fbab88146101e8578063a126d6011461024d57600080fd5b8063098956ee1461014757806312cb34881461016357806327691e95146101785780633d8319541461018b578063441a3e701461019d575b600080fd5b61015060025481565b6040519081526020015b60405180910390f35b610176610171366004610c79565b610385565b005b610176610186366004610c79565b61043d565b610176610199366004610c79565b5050565b6101766101ab366004610c79565b6104e1565b61015060015481565b6101766101c7366004610c79565b6105a3565b61015060005481565b6101766101e3366004610c79565b610678565b6102256101f6366004610c9b565b600560205260009081526040902080546001820154600283015460038401546004909401549293919290919085565b604080519586526020860194909452928401919091526060830152608082015260a00161015a565b61017661025b366004610c9b565b610700565b61017661026e366004610c9b565b600255565b6003546102809060ff1681565b604051901515815260200161015a565b61017661029e366004610c79565b61090b565b6101766102b1366004610c9b565b6109a6565b6101766102c4366004610c79565b610a42565b6101766102d7366004610c79565b610a9f565b6101766102ea366004610c9b565b600055565b6103326102fd366004610c9b565b600460208190526000918252604090912080546001820154600283015460038401549484015460059094015492949193909286565b604080519687526020870195909552938501929092526060840152608083015260a082015260c00161015a565b61017661036d366004610cb4565b610ac5565b610176610380366004610c79565b610bcb565b6000828152600460205260409020805483146103bc5760405162461bcd60e51b81526004016103b390610cef565b60405180910390fd5b81816002015410156103e05760405162461bcd60e51b81526004016103b390610d18565b60035460009060ff166103f5576002546103f9565b6001545b90508282600201600082825461040f9190610d57565b9091555061041f90508184610d6a565b8260030160008282546104329190610d8c565b909155505050505050565b60008281526004602052604090208054831461046b5760405162461bcd60e51b81526004016103b390610cef565b818160030154101561048f5760405162461bcd60e51b81526004016103b390610d9f565b60035460009060ff166104a4576002546104a8565b6001545b9050828260030160008282546104be9190610d57565b909155506104ce90508184610dc8565b8260020160008282546104329190610d8c565b60008281526004602052604090208054831461050f5760405162461bcd60e51b81526004016103b390610cef565b81816001015410156105335760405162461bcd60e51b81526004016103b390610ddf565b6004810154156105855760405162461bcd60e51b815260206004820152601960248201527f63616e6e6f74207769746864726177207769746820646562740000000000000060448201526064016103b3565b818160010160008282546105999190610d57565b9091555050505050565b6000828152600460205260409020805483146105d15760405162461bcd60e51b81526004016103b390610cef565b81816003015410156105f55760405162461bcd60e51b81526004016103b390610d9f565b81816004015410156106495760405162461bcd60e51b815260206004820152601b60248201527f6e6f7420656e6f756768206767617320746f207061792064656274000000000060448201526064016103b3565b8181600301600082825461065d9190610d57565b92505081905550818160040160008282546105999190610d57565b6000828152600460205260409020805483146106a65760405162461bcd60e51b81526004016103b390610cef565b81816001015410156106ca5760405162461bcd60e51b81526004016103b390610ddf565b818160010160008282546106de9190610d57565b909155506106ed905082610c53565b8160020160008282546105999190610d8c565b60008181526004602052604090208054821461072e5760405162461bcd60e51b81526004016103b390610cef565b60008281526005602052604081206004810154600382015491929160029161075591610d8c565b61075f9190610d6a565b90508160040154600154106107c55780826002015461077e9190610dc8565b8360020160008282546107919190610d8c565b9250508190555060008360030160008282546107ad9190610d8c565b90915550506000600283018190556001830155610905565b816003015460015411610876578082600201546107e29190610dc8565b8360020160008282546107f59190610d8c565b9250508190555060008360030160008282546108119190610d8c565b90915550506004820154600383015460029161082c91610d8c565b836001015461083b9190610d6a565b6108459190610d6a565b8360030160008282546108589190610d8c565b909155505060018201546002840180546000906107ad908490610d57565b60008260020154836003015460015461088f9190610d57565b6108999190610dc8565b90506000836002015460015485600401546108b49190610d57565b6108be9190610dc8565b9050818560020160008282546108d49190610d8c565b92505081905550808560030160008282546108ef9190610d8c565b9091555050600060028501819055600185015550505b50505050565b6000828152600460205260409020805483146109395760405162461bcd60e51b81526004016103b390610cef565b60006109516002548461094c9190610dc8565b610c69565b905080826001015410156109775760405162461bcd60e51b81526004016103b390610ddf565b8082600101600082825461098b9190610d57565b92505081905550828260030160008282546104329190610d8c565b60035460ff16156109ea5760405162461bcd60e51b815260206004820152600e60248201526d185b1c9958591e4818db1bdcd95960921b60448201526064016103b3565b6000548114610a2e5760405162461bcd60e51b815260206004820152601060248201526f6e6f742074617267657420707269636560801b60448201526064016103b3565b60019081556003805460ff19169091179055565b600082815260046020526040902080548314610a705760405162461bcd60e51b81526004016103b390610cef565b81816003016000828254610a849190610d8c565b92505081905550818160040160008282546105999190610d8c565b600082815260046020526040812083815560018101805491928492610599908490610d8c565b600085815260046020526040902080548614610af35760405162461bcd60e51b81526004016103b390610cef565b60008681526005602052604090206002820154861115610b255760405162461bcd60e51b81526004016103b390610d18565b8482600301541015610b495760405162461bcd60e51b81526004016103b390610d9f565b85826002016000828254610b5d9190610d57565b9250508190555084826003016000828254610b789190610d57565b9091555050868155600181018054879190600090610b97908490610d8c565b9250508190555084816002016000828254610bb29190610d8c565b9091555050600381019390935550600490910155505050565b600082815260046020526040902080548314610bf95760405162461bcd60e51b81526004016103b390610cef565b8181600201541015610c1d5760405162461bcd60e51b81526004016103b390610d18565b81816002016000828254610c319190610d57565b90915550610c40905082610c69565b8160010160008282546105999190610d8c565b6000610c63633b9aca0083610dc8565b92915050565b6000610c63633b9aca0083610d6a565b60008060408385031215610c8c57600080fd5b50508035926020909101359150565b600060208284031215610cad57600080fd5b5035919050565b600080600080600060a08688031215610ccc57600080fd5b505083359560208501359550604085013594606081013594506080013592509050565b6020808252600f908201526e1a5b9d985b1a59081858d8dbdd5b9d608a1b604082015260600190565b6020808252600f908201526e6e6f7420656e6f756768206777656960881b604082015260600190565b634e487b7160e01b600052601160045260246000fd5b81810381811115610c6357610c63610d41565b600082610d8757634e487b7160e01b600052601260045260246000fd5b500490565b80820180821115610c6357610c63610d41565b6020808252600f908201526e6e6f7420656e6f756768206767617360881b604082015260600190565b8082028115828204841417610c6357610c63610d41565b6020808252601190820152701b9bdd08195b9bdd59da0818dc99591a5d607a1b60408201526060019056fea26469706673582212209226357b96b3147b8ee32374967b878f99d2fd40dec883549ace12b662a3d96364736f6c63430008180033","linkReferences":{}},"methodIdentifiers":{"accounts(uint256)":"f2a40db8","buyGasExactIn(uint256,uint256)":"12cb3488","buyGasExactOut(uint256,uint256)":"3d831954","closePeriod(uint256)":"ddf427a1","closePosition(uint256)":"a126d601","convertCreditToGGas(uint256,uint256)":"c3d4f501","convertCreditToGWei(uint256,uint256)":"76b2d76c","convertGWeiToCredit(uint256,uint256)":"fd401134","currentMarketPrice()":"098956ee","deposit(uint256,uint256)":"e2bbb158","epochSettlementPrice()":"52c754b2","epochTargetPrice()":"70eabfde","isClosed()":"c2b6b58c","mintGGas(uint256,uint256)":"debccce6","payDebt(uint256,uint256)":"62cc01e7","positions(uint256)":"99fbab88","sellGasExactIn(uint256,uint256)":"27691e95","sellGasExactOut(uint256,uint256)":"c7f5f4e8","setCurrentMarketPrice(uint256)":"abb17565","setEpochTargetPrice(uint256)":"eb90c119","supply(uint256,uint256,uint256,uint256,uint256)":"f8d82f39","withdraw(uint256,uint256)":"441a3e70"},"id":51}