{"abi":[{"type":"constructor","inputs":[{"name":"_owner","type":"address","internalType":"address"},{"name":"name","type":"string","internalType":"string"},{"name":"symbol","type":"string","internalType":"string"}],"stateMutability":"nonpayable"},{"type":"function","name":"allowance","inputs":[{"name":"owner","type":"address","internalType":"address"},{"name":"spender","type":"address","internalType":"address"}],"outputs":[{"name":"","type":"uint256","internalType":"uint256"}],"stateMutability":"view"},{"type":"function","name":"approve","inputs":[{"name":"spender","type":"address","internalType":"address"},{"name":"value","type":"uint256","internalType":"uint256"}],"outputs":[{"name":"","type":"bool","internalType":"bool"}],"stateMutability":"nonpayable"},{"type":"function","name":"balanceOf","inputs":[{"name":"account","type":"address","internalType":"address"}],"outputs":[{"name":"","type":"uint256","internalType":"uint256"}],"stateMutability":"view"},{"type":"function","name":"decimals","inputs":[],"outputs":[{"name":"","type":"uint8","internalType":"uint8"}],"stateMutability":"view"},{"type":"function","name":"mint","inputs":[{"name":"to","type":"address","internalType":"address"},{"name":"amount","type":"uint256","internalType":"uint256"}],"outputs":[],"stateMutability":"nonpayable"},{"type":"function","name":"name","inputs":[],"outputs":[{"name":"","type":"string","internalType":"string"}],"stateMutability":"view"},{"type":"function","name":"owner","inputs":[],"outputs":[{"name":"","type":"address","internalType":"address"}],"stateMutability":"view"},{"type":"function","name":"pause","inputs":[],"outputs":[],"stateMutability":"nonpayable"},{"type":"function","name":"paused","inputs":[],"outputs":[{"name":"","type":"bool","internalType":"bool"}],"stateMutability":"view"},{"type":"function","name":"renounceOwnership","inputs":[],"outputs":[],"stateMutability":"nonpayable"},{"type":"function","name":"symbol","inputs":[],"outputs":[{"name":"","type":"string","internalType":"string"}],"stateMutability":"view"},{"type":"function","name":"totalSupply","inputs":[],"outputs":[{"name":"","type":"uint256","internalType":"uint256"}],"stateMutability":"view"},{"type":"function","name":"transfer","inputs":[{"name":"to","type":"address","internalType":"address"},{"name":"value","type":"uint256","internalType":"uint256"}],"outputs":[{"name":"","type":"bool","internalType":"bool"}],"stateMutability":"nonpayable"},{"type":"function","name":"transferFrom","inputs":[{"name":"from","type":"address","internalType":"address"},{"name":"to","type":"address","internalType":"address"},{"name":"value","type":"uint256","internalType":"uint256"}],"outputs":[{"name":"","type":"bool","internalType":"bool"}],"stateMutability":"nonpayable"},{"type":"function","name":"transferOwnership","inputs":[{"name":"newOwner","type":"address","internalType":"address"}],"outputs":[],"stateMutability":"nonpayable"},{"type":"function","name":"unpause","inputs":[],"outputs":[],"stateMutability":"nonpayable"},{"type":"event","name":"Approval","inputs":[{"name":"owner","type":"address","indexed":true,"internalType":"address"},{"name":"spender","type":"address","indexed":true,"internalType":"address"},{"name":"value","type":"uint256","indexed":false,"internalType":"uint256"}],"anonymous":false},{"type":"event","name":"OwnershipTransferred","inputs":[{"name":"previousOwner","type":"address","indexed":true,"internalType":"address"},{"name":"newOwner","type":"address","indexed":true,"internalType":"address"}],"anonymous":false},{"type":"event","name":"Paused","inputs":[{"name":"account","type":"address","indexed":false,"internalType":"address"}],"anonymous":false},{"type":"event","name":"Transfer","inputs":[{"name":"from","type":"address","indexed":true,"internalType":"address"},{"name":"to","type":"address","indexed":true,"internalType":"address"},{"name":"value","type":"uint256","indexed":false,"internalType":"uint256"}],"anonymous":false},{"type":"event","name":"Unpaused","inputs":[{"name":"account","type":"address","indexed":false,"internalType":"address"}],"anonymous":false},{"type":"error","name":"ERC20InsufficientAllowance","inputs":[{"name":"spender","type":"address","internalType":"address"},{"name":"allowance","type":"uint256","internalType":"uint256"},{"name":"needed","type":"uint256","internalType":"uint256"}]},{"type":"error","name":"ERC20InsufficientBalance","inputs":[{"name":"sender","type":"address","internalType":"address"},{"name":"balance","type":"uint256","internalType":"uint256"},{"name":"needed","type":"uint256","internalType":"uint256"}]},{"type":"error","name":"ERC20InvalidApprover","inputs":[{"name":"approver","type":"address","internalType":"address"}]},{"type":"error","name":"ERC20InvalidReceiver","inputs":[{"name":"receiver","type":"address","internalType":"address"}]},{"type":"error","name":"ERC20InvalidSender","inputs":[{"name":"sender","type":"address","internalType":"address"}]},{"type":"error","name":"ERC20InvalidSpender","inputs":[{"name":"spender","type":"address","internalType":"address"}]},{"type":"error","name":"EnforcedPause","inputs":[]},{"type":"error","name":"ExpectedPause","inputs":[]},{"type":"error","name":"OwnableInvalidOwner","inputs":[{"name":"owner","type":"address","internalType":"address"}]},{"type":"error","name":"OwnableUnauthorizedAccount","inputs":[{"name":"account","type":"address","internalType":"address"}]}],"bytecode":{"object":"0x60806040523480156200001157600080fd5b5060405162000df438038062000df48339810160408190526200003491620001c7565b8282826003620000458382620002e2565b506004620000548282620002e2565b50506005805460ff19169055506001600160a01b0381166200009057604051631e4fbdf760e01b81526000600482015260240160405180910390fd5b6200009b81620000a5565b50505050620003ae565b600580546001600160a01b03838116610100818102610100600160a81b031985161790945560405193909204169182907f8be0079c531659141344cd1fd0a4f28419497f9722a3daafe3b4186f6b6457e090600090a35050565b634e487b7160e01b600052604160045260246000fd5b600082601f8301126200012757600080fd5b81516001600160401b0380821115620001445762000144620000ff565b604051601f8301601f19908116603f011681019082821181831017156200016f576200016f620000ff565b81604052838152602092508660208588010111156200018d57600080fd5b600091505b83821015620001b1578582018301518183018401529082019062000192565b6000602085830101528094505050505092915050565b600080600060608486031215620001dd57600080fd5b83516001600160a01b0381168114620001f557600080fd5b60208501519093506001600160401b03808211156200021357600080fd5b620002218783880162000115565b935060408601519150808211156200023857600080fd5b50620002478682870162000115565b9150509250925092565b600181811c908216806200026657607f821691505b6020821081036200028757634e487b7160e01b600052602260045260246000fd5b50919050565b601f821115620002dd576000816000526020600020601f850160051c81016020861015620002b85750805b601f850160051c820191505b81811015620002d957828155600101620002c4565b5050505b505050565b81516001600160401b03811115620002fe57620002fe620000ff565b62000316816200030f845462000251565b846200028d565b602080601f8311600181146200034e5760008415620003355750858301515b600019600386901b1c1916600185901b178555620002d9565b600085815260208120601f198616915b828110156200037f578886015182559484019460019091019084016200035e565b50858210156200039e5787850151600019600388901b60f8161c191681555b5050505050600190811b01905550565b610a3680620003be6000396000f3fe608060405234801561001057600080fd5b50600436106101005760003560e01c806370a082311161009757806395d89b411161006657806395d89b4114610204578063a9059cbb1461020c578063dd62ed3e1461021f578063f2fde38b1461025857600080fd5b806370a08231146101a2578063715018a6146101cb5780638456cb59146101d35780638da5cb5b146101db57600080fd5b8063313ce567116100d3578063313ce5671461016b5780633f4ba83a1461017a57806340c10f19146101845780635c975abb1461019757600080fd5b806306fdde0314610105578063095ea7b31461012357806318160ddd1461014657806323b872dd14610158575b600080fd5b61010d61026b565b60405161011a919061087f565b60405180910390f35b6101366101313660046108ea565b6102fd565b604051901515815260200161011a565b6002545b60405190815260200161011a565b610136610166366004610914565b610317565b6040516012815260200161011a565b61018261033b565b005b6101826101923660046108ea565b61034d565b60055460ff16610136565b61014a6101b0366004610950565b6001600160a01b031660009081526020819052604090205490565b610182610363565b610182610375565b60055461010090046001600160a01b03166040516001600160a01b03909116815260200161011a565b61010d610385565b61013661021a3660046108ea565b610394565b61014a61022d366004610972565b6001600160a01b03918216600090815260016020908152604080832093909416825291909152205490565b610182610266366004610950565b6103a2565b60606003805461027a906109a5565b80601f01602080910402602001604051908101604052809291908181526020018280546102a6906109a5565b80156102f35780601f106102c8576101008083540402835291602001916102f3565b820191906000526020600020905b8154815290600101906020018083116102d657829003601f168201915b5050505050905090565b60003361030b8185856103e5565b60019150505b92915050565b6000336103258582856103f7565b610330858585610475565b506001949350505050565b6103436104d4565b61034b610507565b565b6103556104d4565b61035f8282610559565b5050565b61036b6104d4565b61034b600061058f565b61037d6104d4565b61034b6105e9565b60606004805461027a906109a5565b60003361030b818585610475565b6103aa6104d4565b6001600160a01b0381166103d957604051631e4fbdf760e01b8152600060048201526024015b60405180910390fd5b6103e28161058f565b50565b6103f28383836001610626565b505050565b6001600160a01b03838116600090815260016020908152604080832093861683529290522054600019811461046f578181101561046057604051637dc7a0d960e11b81526001600160a01b038416600482015260248101829052604481018390526064016103d0565b61046f84848484036000610626565b50505050565b6001600160a01b03831661049f57604051634b637e8f60e11b8152600060048201526024016103d0565b6001600160a01b0382166104c95760405163ec442f0560e01b8152600060048201526024016103d0565b6103f28383836106fb565b6005546001600160a01b0361010090910416331461034b5760405163118cdaa760e01b81523360048201526024016103d0565b61050f61070e565b6005805460ff191690557f5db9ee0a495bf2e6ff9c91a7834c1ba4fdd244a5e8aa4e537bd38aeae4b073aa335b6040516001600160a01b03909116815260200160405180910390a1565b6001600160a01b0382166105835760405163ec442f0560e01b8152600060048201526024016103d0565b61035f600083836106fb565b600580546001600160a01b03838116610100818102610100600160a81b031985161790945560405193909204169182907f8be0079c531659141344cd1fd0a4f28419497f9722a3daafe3b4186f6b6457e090600090a35050565b6105f1610731565b6005805460ff191660011790557f62e78cea01bee320cd4e420270b5ea74000d11b0c9f74754ebdbfc544b05a25861053c3390565b6001600160a01b0384166106505760405163e602df0560e01b8152600060048201526024016103d0565b6001600160a01b03831661067a57604051634a1406b160e11b8152600060048201526024016103d0565b6001600160a01b038085166000908152600160209081526040808320938716835292905220829055801561046f57826001600160a01b0316846001600160a01b03167f8c5be1e5ebec7d5bd14f71427d1e84f3dd0314c0f7b2291e5b200ac8c7c3b925846040516106ed91815260200190565b60405180910390a350505050565b610703610731565b6103f2838383610755565b60055460ff1661034b57604051638dfc202b60e01b815260040160405180910390fd5b60055460ff161561034b5760405163d93c066560e01b815260040160405180910390fd5b6001600160a01b03831661078057806002600082825461077591906109df565b909155506107f29050565b6001600160a01b038316600090815260208190526040902054818110156107d35760405163391434e360e21b81526001600160a01b038516600482015260248101829052604481018390526064016103d0565b6001600160a01b03841660009081526020819052604090209082900390555b6001600160a01b03821661080e5760028054829003905561082d565b6001600160a01b03821660009081526020819052604090208054820190555b816001600160a01b0316836001600160a01b03167fddf252ad1be2c89b69c2b068fc378daa952ba7f163c4a11628f55a4df523b3ef8360405161087291815260200190565b60405180910390a3505050565b60006020808352835180602085015260005b818110156108ad57858101830151858201604001528201610891565b506000604082860101526040601f19601f8301168501019250505092915050565b80356001600160a01b03811681146108e557600080fd5b919050565b600080604083850312156108fd57600080fd5b610906836108ce565b946020939093013593505050565b60008060006060848603121561092957600080fd5b610932846108ce565b9250610940602085016108ce565b9150604084013590509250925092565b60006020828403121561096257600080fd5b61096b826108ce565b9392505050565b6000806040838503121561098557600080fd5b61098e836108ce565b915061099c602084016108ce565b90509250929050565b600181811c908216806109b957607f821691505b6020821081036109d957634e487b7160e01b600052602260045260246000fd5b50919050565b8082018082111561031157634e487b7160e01b600052601160045260246000fdfea26469706673582212200e8f58397f45f6477ead54de28849440fa7bb4a4d1925613d2ef2c94820aa1b164736f6c63430008180033","linkReferences":{}},"methodIdentifiers":{"allowance(address,address)":"dd62ed3e","approve(address,uint256)":"095ea7b3","balanceOf(address)":"70a08231","decimals()":"313ce567","mint(address,uint256)":"40c10f19","name()":"06fdde03","owner()":"8da5cb5b","pause()":"8456cb59","paused()":"5c975abb","renounceOwnership()":"715018a6","symbol()":"95d89b41","totalSupply()":"18160ddd","transfer(address,uint256)":"a9059cbb","transferFrom(address,address,uint256)":"23b872dd","transferOwnership(address)":"f2fde38b","unpause()":"3f4ba83a"},"id":56}