{"abi":[{"type":"constructor","inputs":[{"name":"endTime","type":"uint256","internalType":"uint256"},{"name":"uniswapPositionManager","type":"address","internalType":"address"},{"name":"resolver","type":"address","internalType":"address"},{"name":"collateralAsset","type":"address","internalType":"address"},{"name":"baseAssetMinPrice","type":"uint256","internalType":"uint256"},{"name":"baseAssetMaxPrice","type":"uint256","internalType":"uint256"},{"name":"feeRate","type":"uint24","internalType":"uint24"}],"stateMutability":"nonpayable"},{"type":"function","name":"addLiquidity","inputs":[{"name":"params","type":"tuple","internalType":"struct IFoil.AddLiquidityRuntimeParams","components":[{"name":"accountId","type":"uint256","internalType":"uint256"},{"name":"amountTokenA","type":"uint256","internalType":"uint256"},{"name":"amountTokenB","type":"uint256","internalType":"uint256"},{"name":"collateralAmount","type":"uint256","internalType":"uint256"},{"name":"lowerTick","type":"int24","internalType":"int24"},{"name":"upperTick","type":"int24","internalType":"int24"}]}],"outputs":[{"name":"tokenId","type":"uint256","internalType":"uint256"},{"name":"liquidity","type":"uint128","internalType":"uint128"},{"name":"amount0","type":"uint256","internalType":"uint256"},{"name":"amount1","type":"uint256","internalType":"uint256"}],"stateMutability":"payable"},{"type":"function","name":"createAccount","inputs":[{"name":"accountId","type":"uint256","internalType":"uint256"}],"outputs":[],"stateMutability":"nonpayable"},{"type":"function","name":"getEpoch","inputs":[],"outputs":[{"name":"pool","type":"address","internalType":"address"},{"name":"ethToken","type":"address","internalType":"address"},{"name":"gasToken","type":"address","internalType":"address"}],"stateMutability":"view"},{"type":"function","name":"getPosition","inputs":[{"name":"accountId","type":"uint256","internalType":"uint256"}],"outputs":[{"name":"tokenAmount0","type":"uint256","internalType":"uint256"},{"name":"tokenAmount1","type":"uint256","internalType":"uint256"}],"stateMutability":"view"},{"type":"function","name":"onERC721Received","inputs":[{"name":"operator","type":"address","internalType":"address"},{"name":"","type":"address","internalType":"address"},{"name":"tokenId","type":"uint256","internalType":"uint256"},{"name":"","type":"bytes","internalType":"bytes"}],"outputs":[{"name":"","type":"bytes4","internalType":"bytes4"}],"stateMutability":"nonpayable"},{"type":"function","name":"uniswapV3MintCallback","inputs":[{"name":"amount0Owed","type":"uint256","internalType":"uint256"},{"name":"amount1Owed","type":"uint256","internalType":"uint256"},{"name":"data","type":"bytes","internalType":"bytes"}],"outputs":[],"stateMutability":"nonpayable"},{"type":"error","name":"AccountAlreadyCreated","inputs":[]},{"type":"error","name":"EpochAlreadyStarted","inputs":[]},{"type":"error","name":"InvalidAccountId","inputs":[{"name":"accountId","type":"uint256","internalType":"uint256"}]},{"type":"error","name":"InvalidVirtualToken","inputs":[{"name":"token","type":"address","internalType":"address"}]},{"type":"error","name":"OverflowInt24ToUint256","inputs":[]},{"type":"error","name":"OverflowInt256ToUint256","inputs":[]},{"type":"error","name":"OverflowUint256ToInt256","inputs":[]},{"type":"error","name":"ReentrancyGuardReentrantCall","inputs":[]},{"type":"error","name":"TokensAlreadyCreated","inputs":[]}],"bytecode":{"object":"0x60806040523480156200001157600080fd5b5060405162002b7338038062002b7383398101604081905262000034916200062b565b600160009081556200004c888888888888886200005c565b90505050505050505050620007c1565b6000620000686200052d565b805490915015158062000087575060018101546001600160a01b031615155b15620000a6576040516326ddce9160e01b815260040160405180910390fd5b60068101546001600160a01b0316151580620000ce575060078101546001600160a01b031615155b15620000ed57604051631b4535f160e11b815260040160405180910390fd5b8781556001810180546001600160a01b03199081166001600160a01b038a81169190911790925560028301805482168984161790556003830180549091169187169190911790556004810184905560058101839055600a8101805462ffffff191662ffffff84161790556040513090620001679062000607565b6001600160a01b039091168152606060208201819052601190820152703b34b93a3ab0b61022aa24102a37b5b2b760791b608082015260a060408201819052600490820152630ec8aa8960e31b60c082015260e001604051809103906000f080158015620001d9573d6000803e3d6000fd5b506006820180546001600160a01b0319166001600160a01b039290921691909117905560405130906200020c9062000607565b6001600160a01b039091168152606060208201819052601190820152703b34b93a3ab0b61023a0a9903a37b5b2b760791b608082015260a060408201819052600490820152637647415360e01b60c082015260e001604051809103906000f0801580156200027e573d6000803e3d6000fd5b506007820180546001600160a01b0319166001600160a01b0392831617905560018201546040805163c45a015560e01b81529051919092169163c45a01559160048083019260209291908290030181865afa158015620002e2573d6000803e3d6000fd5b505050506040513d601f19601f82011682018060405250810190620003089190620006ba565b6006820154600783015460405163a167129560e01b81526001600160a01b039283166004820152908216602482015262ffffff8516604482015291169063a1671295906064016020604051808303816000875af11580156200036e573d6000803e3d6000fd5b505050506040513d601f19601f82011682018060405250810190620003949190620006ba565b6008820180546001600160a01b0319166001600160a01b0392909216918217905560405163f637731d60e01b81526c03298b075b4b6a524094579061600482015263f637731d90602401600060405180830381600087803b158015620003f957600080fd5b505af11580156200040e573d6000803e3d6000fd5b505050600882015460408051633850c7bd60e01b815290516000935083926001600160a01b031691633850c7bd9160048083019260e09291908290030181865afa15801562000461573d6000803e3d6000fd5b505050506040513d601f19601f820116820180604052508101906200048791906200070c565b50505050509150915060008360080160009054906101000a90046001600160a01b03166001600160a01b031663d0c93a7c6040518163ffffffff1660e01b8152600401602060405180830381865afa158015620004e8573d6000803e3d6000fd5b505050506040513d601f19601f820116820180604052508101906200050e9190620007a3565b90506200051f600282900b62000581565b505050979650505050505050565b60008060405160200162000563906020808252600e908201526d0ccded2d85ccec2e65ccae0dec6d60931b604082015260600190565b60408051601f19818403018152919052805160209091012092915050565b620005cd816040516024016200059991815260200190565b60408051601f198184030181529190526020810180516001600160e01b03908116632d5b6cb960e01b17909152620005d016565b50565b620005cd81620005e660201b6200078d1760201c565b80516a636f6e736f6c652e6c6f67602083016000808483855afa5050505050565b610df48062001d7f83390190565b6001600160a01b0381168114620005cd57600080fd5b600080600080600080600060e0888a0312156200064757600080fd5b8751965060208801516200065b8162000615565b60408901519096506200066e8162000615565b6060890151909550620006818162000615565b809450506080880151925060a0880151915060c088015162ffffff81168114620006aa57600080fd5b8091505092959891949750929550565b600060208284031215620006cd57600080fd5b8151620006da8162000615565b9392505050565b8051600281900b8114620006f457600080fd5b919050565b805161ffff81168114620006f457600080fd5b600080600080600080600060e0888a0312156200072857600080fd5b8751620007358162000615565b96506200074560208901620006e1565b95506200075560408901620006f9565b94506200076560608901620006f9565b93506200077560808901620006f9565b925060a088015160ff811681146200078c57600080fd5b60c08901519092508015158114620006aa57600080fd5b600060208284031215620007b657600080fd5b620006da82620006e1565b6115ae80620007d16000396000f3fe6080604052600436106100555760003560e01c8063150b7a021461005a578063757991a814610098578063cab13915146100d7578063d3487997146100f9578063eb02c30114610119578063ee81244e1461014e575b600080fd5b34801561006657600080fd5b5061007a61007536600461114c565b610189565b6040516001600160e01b031990911681526020015b60405180910390f35b3480156100a457600080fd5b506100ad61019b565b604080516001600160a01b039485168152928416602084015292169181019190915260600161008f565b3480156100e357600080fd5b506100f76100f23660046111bf565b6101d2565b005b34801561010557600080fd5b506100f76101143660046111d8565b6101df565b34801561012557600080fd5b506101396101343660046111bf565b61057c565b6040805192835260208301919091520161008f565b61016161015c366004611245565b6105a0565b604080519485526001600160801b03909316602085015291830152606082015260800161008f565b630a85bd0160e11b5b95945050505050565b6000806000806101a96107ae565b600881015460068201546007909201546001600160a01b03918216979282169650169350915050565b6101db81610801565b5050565b60006101ed828401846111bf565b905060006101f96107ae565b9050600061020683610835565b905086156103c057600882015460408051630dfe168160e01b815290516000926001600160a01b031691630dfe16819160048083019260209291908290030181865afa15801561025a573d6000803e3d6000fd5b505050506040513d601f19601f8201168201806040525081019061027e91906112d8565b60078401549091506001600160a01b038083169116146102c15760405163dbd2707b60e01b81526001600160a01b03821660048201526024015b60405180910390fd5b60078301546040516340c10f1960e01b8152306004820152602481018a90526001600160a01b03909116906340c10f1990604401600060405180830381600087803b15801561030f57600080fd5b505af1158015610323573d6000803e3d6000fd5b505050506007830154600884015460405163a9059cbb60e01b81526001600160a01b039182166004820152602481018b905291169063a9059cbb906044016020604051808303816000875af1158015610380573d6000803e3d6000fd5b505050506040513d601f19601f820116820180604052508101906103a49190611305565b50878260020160008282546103b99190611336565b9091555050505b85156105735760088201546040805163d21220a760e01b815290516000926001600160a01b03169163d21220a79160048083019260209291908290030181865afa158015610412573d6000803e3d6000fd5b505050506040513d601f19601f8201168201806040525081019061043691906112d8565b60068401549091506001600160a01b038083169116146104745760405163dbd2707b60e01b81526001600160a01b03821660048201526024016102b8565b60068301546040516340c10f1960e01b8152306004820152602481018990526001600160a01b03909116906340c10f1990604401600060405180830381600087803b1580156104c257600080fd5b505af11580156104d6573d6000803e3d6000fd5b505050506006830154600884015460405163a9059cbb60e01b81526001600160a01b039182166004820152602481018a905291169063a9059cbb906044016020604051808303816000875af1158015610533573d6000803e3d6000fd5b505050506040513d601f19601f820116820180604052508101906105579190611305565b508682600301600082825461056c9190611336565b9091555050505b50505050505050565b600080600061058a84610835565b9050806002015481600301549250925050915091565b60008060008060006105b58660000151610850565b905060006105c16107ae565b905060008160080160009054906101000a90046001600160a01b03166001600160a01b0316633850c7bd6040518163ffffffff1660e01b815260040160e060405180830381865afa15801561061a573d6000803e3d6000fd5b505050506040513d601f19601f8201168201806040525081019061063e919061135b565b5050505050509050610673816106578a6080015161088f565b6106648b60a0015161088f565b8b602001518c60400151610cb7565b95506000808360080160009054906101000a90046001600160a01b03166001600160a01b0316633c8a7d8d308c608001518d60a001518c8f600001516040516020016106c191815260200190565b6040516020818303038152906040526040518663ffffffff1660e01b81526004016106f09594939291906113ee565b60408051808303816000875af115801561070e573d6000803e3d6000fd5b505050506040513d601f19601f820116820180604052508101906107329190611471565b91509150816107448b60000151610d79565b60020160008282546107569190611336565b90915550508951819061076890610d79565b600301600082825461077a9190611336565b9250508190555050505050509193509193565b80516a636f6e736f6c652e6c6f67602083016000808483855afa5050505050565b6000806040516020016107e3906020808252600e908201526d0ccded2d85ccec2e65ccae0dec6d60931b604082015260600190565b60408051601f19818403018152919052805160209091012092915050565b600061080c82610dd3565b80549091501561082f5760405163e242fbdf60e01b815260040160405180910390fd5b90815590565b600061084082610850565b5061084a82610d79565b92915050565b600061085b82610dd3565b905081158061086957508054155b1561088a5760405163ce7793a960e01b8152600481018390526024016102b8565b919050565b60008060008360020b126108a6578260020b6108b3565b8260020b6108b390611495565b90506108cd6108c5620d89e7196114b1565b60020b610e11565b8111156109005760405162461bcd60e51b81526020600482015260016024820152601560fa1b60448201526064016102b8565b60008160011660000361091757600160801b610929565b6ffffcb933bd6fad37aa2d162d1a5940015b70ffffffffffffffffffffffffffffffffff1690506002821615610968576080610963826ffff97272373d413259a46990580e213a6114d3565b901c90505b600482161561099257608061098d826ffff2e50f5f656932ef12357cf3c7fdcc6114d3565b901c90505b60088216156109bc5760806109b7826fffe5caca7e10e4e61c3624eaa0941cd06114d3565b901c90505b60108216156109e65760806109e1826fffcb9843d60f6159c9db58835c9266446114d3565b901c90505b6020821615610a10576080610a0b826fff973b41fa98c081472e6896dfb254c06114d3565b901c90505b6040821615610a3a576080610a35826fff2ea16466c96a3843ec78b326b528616114d3565b901c90505b6080821615610a64576080610a5f826ffe5dee046a99a2a811c461f1969c30536114d3565b901c90505b610100821615610a8f576080610a8a826ffcbe86c7900a88aedcffc83b479aa3a46114d3565b901c90505b610200821615610aba576080610ab5826ff987a7253ac413176f2b074cf7815e546114d3565b901c90505b610400821615610ae5576080610ae0826ff3392b0822b70005940c7a398e4b70f36114d3565b901c90505b610800821615610b10576080610b0b826fe7159475a2c29b7443b29c7fa6e889d96114d3565b901c90505b611000821615610b3b576080610b36826fd097f3bdfd2022b8845ad8f792aa58256114d3565b901c90505b612000821615610b66576080610b61826fa9f746462d870fdf8a65dc1f90e061e56114d3565b901c90505b614000821615610b91576080610b8c826f70d869a156d2a1b890bb3df62baf32f76114d3565b901c90505b618000821615610bbc576080610bb7826f31be135f97d08fd981231505542fcfa66114d3565b901c90505b62010000821615610be8576080610be3826f09aa508b5b7a84e1c677de54f3e99bc96114d3565b901c90505b62020000821615610c13576080610c0e826e5d6af8dedb81196699c329225ee6046114d3565b901c90505b62040000821615610c3d576080610c38826d2216e584f5fa1ea926041bedfe986114d3565b901c90505b62080000821615610c65576080610c60826b048a170391f7dc42444e8fa26114d3565b901c90505b60008460020b1315610c8057610c7d81600019611500565b90505b610c8f64010000000082611514565b15610c9b576001610c9e565b60005b610caf9060ff16602083901c611336565b949350505050565b6000836001600160a01b0316856001600160a01b03161115610cd7579293925b846001600160a01b0316866001600160a01b031611610d0257610cfb858585610e40565b9050610192565b836001600160a01b0316866001600160a01b03161015610d64576000610d29878686610e40565b90506000610d38878986610eb5565b9050806001600160801b0316826001600160801b031610610d595780610d5b565b815b92505050610192565b610d6f858584610eb5565b9695505050505050565b604080516020810182905260116060820152703337b4b61733b0b9973837b9b4ba34b7b760791b6080820152908101829052600090819060a0015b60408051601f1981840301815291905280516020909101209392505050565b6040805160208101829052601060608201526f199bda5b0b99d85ccb9858d8dbdd5b9d60821b6080820152908101829052600090819060a001610db4565b6000808260020b1215610e3757604051631f5f9fb760e11b815260040160405180910390fd5b5062ffffff1690565b6000826001600160a01b0316846001600160a01b03161115610e60579192915b6000610e83856001600160a01b0316856001600160a01b0316600160601b610eeb565b9050610eaa610ea58483610e978989611528565b6001600160a01b0316610eeb565b61107a565b9150505b9392505050565b6000826001600160a01b0316846001600160a01b03161115610ed5579192915b610caf610ea583600160601b610e978888611528565b6000808060001985870985870292508281108382030391505080600003610f245760008411610f1957600080fd5b508290049050610eae565b808411610f3057600080fd5b6000848688098084039381119092039190506000610f68610f5087611090565b610f5988611090565b610f6290611495565b166110be565b958690049593849004936000819003046001019050610f8781846114d3565b909317926000610f988760036114d3565b6002189050610fa781886114d3565b610fb290600261154f565b610fbc90826114d3565b9050610fc881886114d3565b610fd390600261154f565b610fdd90826114d3565b9050610fe981886114d3565b610ff490600261154f565b610ffe90826114d3565b905061100a81886114d3565b61101590600261154f565b61101f90826114d3565b905061102b81886114d3565b61103690600261154f565b61104090826114d3565b905061104c81886114d3565b61105790600261154f565b61106190826114d3565b905061106d81866114d3565b9998505050505050505050565b806001600160801b038116811461088a57600080fd5b60006001600160ff1b038211156110ba5760405163677c430560e11b815260040160405180910390fd5b5090565b6000808212156110ba5760405163029f024d60e31b815260040160405180910390fd5b6110e9611562565b565b6001600160a01b038116811461110057600080fd5b50565b60008083601f84011261111557600080fd5b50813567ffffffffffffffff81111561112d57600080fd5b60208301915083602082850101111561114557600080fd5b9250929050565b60008060008060006080868803121561116457600080fd5b853561116f816110eb565b9450602086013561117f816110eb565b935060408601359250606086013567ffffffffffffffff8111156111a257600080fd5b6111ae88828901611103565b969995985093965092949392505050565b6000602082840312156111d157600080fd5b5035919050565b600080600080606085870312156111ee57600080fd5b8435935060208501359250604085013567ffffffffffffffff81111561121357600080fd5b61121f87828801611103565b95989497509550505050565b8060020b811461110057600080fd5b803561088a8161122b565b600060c0828403121561125757600080fd5b60405160c0810181811067ffffffffffffffff8211171561128857634e487b7160e01b600052604160045260246000fd5b8060405250823581526020830135602082015260408301356040820152606083013560608201526112bb6080840161123a565b60808201526112cc60a0840161123a565b60a08201529392505050565b6000602082840312156112ea57600080fd5b8151610eae816110eb565b8051801515811461088a57600080fd5b60006020828403121561131757600080fd5b610eae826112f5565b634e487b7160e01b600052601160045260246000fd5b8082018082111561084a5761084a611320565b805161ffff8116811461088a57600080fd5b600080600080600080600060e0888a03121561137657600080fd5b8751611381816110eb565b60208901519097506113928161122b565b95506113a060408901611349565b94506113ae60608901611349565b93506113bc60808901611349565b925060a088015160ff811681146113d257600080fd5b91506113e060c089016112f5565b905092959891949750929550565b60018060a01b0386168152600060208660020b60208401528560020b60408401526001600160801b038516606084015260a0608084015283518060a085015260005b8181101561144c5785810183015185820160c001528201611430565b50600060c0828601015260c0601f19601f830116850101925050509695505050505050565b6000806040838503121561148457600080fd5b505080516020909101519092909150565b6000600160ff1b82016114aa576114aa611320565b5060000390565b60008160020b627fffff1981036114ca576114ca611320565b60000392915050565b808202811582820484141761084a5761084a611320565b634e487b7160e01b600052601260045260246000fd5b60008261150f5761150f6114ea565b500490565b600082611523576115236114ea565b500690565b6001600160a01b0382811682821603908082111561154857611548611320565b5092915050565b8181038181111561084a5761084a611320565b634e487b7160e01b600052605160045260246000fdfea2646970667358221220f7b8e05535dbcb50eee628a3b03e575cbb4b6b8c5b8220cb70a0a00dc0ae141264736f6c6343000818003360806040523480156200001157600080fd5b5060405162000df438038062000df48339810160408190526200003491620001c7565b8282826003620000458382620002e2565b506004620000548282620002e2565b50506005805460ff19169055506001600160a01b0381166200009057604051631e4fbdf760e01b81526000600482015260240160405180910390fd5b6200009b81620000a5565b50505050620003ae565b600580546001600160a01b03838116610100818102610100600160a81b031985161790945560405193909204169182907f8be0079c531659141344cd1fd0a4f28419497f9722a3daafe3b4186f6b6457e090600090a35050565b634e487b7160e01b600052604160045260246000fd5b600082601f8301126200012757600080fd5b81516001600160401b0380821115620001445762000144620000ff565b604051601f8301601f19908116603f011681019082821181831017156200016f576200016f620000ff565b81604052838152602092508660208588010111156200018d57600080fd5b600091505b83821015620001b1578582018301518183018401529082019062000192565b6000602085830101528094505050505092915050565b600080600060608486031215620001dd57600080fd5b83516001600160a01b0381168114620001f557600080fd5b60208501519093506001600160401b03808211156200021357600080fd5b620002218783880162000115565b935060408601519150808211156200023857600080fd5b50620002478682870162000115565b9150509250925092565b600181811c908216806200026657607f821691505b6020821081036200028757634e487b7160e01b600052602260045260246000fd5b50919050565b601f821115620002dd576000816000526020600020601f850160051c81016020861015620002b85750805b601f850160051c820191505b81811015620002d957828155600101620002c4565b5050505b505050565b81516001600160401b03811115620002fe57620002fe620000ff565b62000316816200030f845462000251565b846200028d565b602080601f8311600181146200034e5760008415620003355750858301515b600019600386901b1c1916600185901b178555620002d9565b600085815260208120601f198616915b828110156200037f578886015182559484019460019091019084016200035e565b50858210156200039e5787850151600019600388901b60f8161c191681555b5050505050600190811b01905550565b610a3680620003be6000396000f3fe608060405234801561001057600080fd5b50600436106101005760003560e01c806370a082311161009757806395d89b411161006657806395d89b4114610204578063a9059cbb1461020c578063dd62ed3e1461021f578063f2fde38b1461025857600080fd5b806370a08231146101a2578063715018a6146101cb5780638456cb59146101d35780638da5cb5b146101db57600080fd5b8063313ce567116100d3578063313ce5671461016b5780633f4ba83a1461017a57806340c10f19146101845780635c975abb1461019757600080fd5b806306fdde0314610105578063095ea7b31461012357806318160ddd1461014657806323b872dd14610158575b600080fd5b61010d61026b565b60405161011a919061087f565b60405180910390f35b6101366101313660046108ea565b6102fd565b604051901515815260200161011a565b6002545b60405190815260200161011a565b610136610166366004610914565b610317565b6040516012815260200161011a565b61018261033b565b005b6101826101923660046108ea565b61034d565b60055460ff16610136565b61014a6101b0366004610950565b6001600160a01b031660009081526020819052604090205490565b610182610363565b610182610375565b60055461010090046001600160a01b03166040516001600160a01b03909116815260200161011a565b61010d610385565b61013661021a3660046108ea565b610394565b61014a61022d366004610972565b6001600160a01b03918216600090815260016020908152604080832093909416825291909152205490565b610182610266366004610950565b6103a2565b60606003805461027a906109a5565b80601f01602080910402602001604051908101604052809291908181526020018280546102a6906109a5565b80156102f35780601f106102c8576101008083540402835291602001916102f3565b820191906000526020600020905b8154815290600101906020018083116102d657829003601f168201915b5050505050905090565b60003361030b8185856103e5565b60019150505b92915050565b6000336103258582856103f7565b610330858585610475565b506001949350505050565b6103436104d4565b61034b610507565b565b6103556104d4565b61035f8282610559565b5050565b61036b6104d4565b61034b600061058f565b61037d6104d4565b61034b6105e9565b60606004805461027a906109a5565b60003361030b818585610475565b6103aa6104d4565b6001600160a01b0381166103d957604051631e4fbdf760e01b8152600060048201526024015b60405180910390fd5b6103e28161058f565b50565b6103f28383836001610626565b505050565b6001600160a01b03838116600090815260016020908152604080832093861683529290522054600019811461046f578181101561046057604051637dc7a0d960e11b81526001600160a01b038416600482015260248101829052604481018390526064016103d0565b61046f84848484036000610626565b50505050565b6001600160a01b03831661049f57604051634b637e8f60e11b8152600060048201526024016103d0565b6001600160a01b0382166104c95760405163ec442f0560e01b8152600060048201526024016103d0565b6103f28383836106fb565b6005546001600160a01b0361010090910416331461034b5760405163118cdaa760e01b81523360048201526024016103d0565b61050f61070e565b6005805460ff191690557f5db9ee0a495bf2e6ff9c91a7834c1ba4fdd244a5e8aa4e537bd38aeae4b073aa335b6040516001600160a01b03909116815260200160405180910390a1565b6001600160a01b0382166105835760405163ec442f0560e01b8152600060048201526024016103d0565b61035f600083836106fb565b600580546001600160a01b03838116610100818102610100600160a81b031985161790945560405193909204169182907f8be0079c531659141344cd1fd0a4f28419497f9722a3daafe3b4186f6b6457e090600090a35050565b6105f1610731565b6005805460ff191660011790557f62e78cea01bee320cd4e420270b5ea74000d11b0c9f74754ebdbfc544b05a25861053c3390565b6001600160a01b0384166106505760405163e602df0560e01b8152600060048201526024016103d0565b6001600160a01b03831661067a57604051634a1406b160e11b8152600060048201526024016103d0565b6001600160a01b038085166000908152600160209081526040808320938716835292905220829055801561046f57826001600160a01b0316846001600160a01b03167f8c5be1e5ebec7d5bd14f71427d1e84f3dd0314c0f7b2291e5b200ac8c7c3b925846040516106ed91815260200190565b60405180910390a350505050565b610703610731565b6103f2838383610755565b60055460ff1661034b57604051638dfc202b60e01b815260040160405180910390fd5b60055460ff161561034b5760405163d93c066560e01b815260040160405180910390fd5b6001600160a01b03831661078057806002600082825461077591906109df565b909155506107f29050565b6001600160a01b038316600090815260208190526040902054818110156107d35760405163391434e360e21b81526001600160a01b038516600482015260248101829052604481018390526064016103d0565b6001600160a01b03841660009081526020819052604090209082900390555b6001600160a01b03821661080e5760028054829003905561082d565b6001600160a01b03821660009081526020819052604090208054820190555b816001600160a01b0316836001600160a01b03167fddf252ad1be2c89b69c2b068fc378daa952ba7f163c4a11628f55a4df523b3ef8360405161087291815260200190565b60405180910390a3505050565b60006020808352835180602085015260005b818110156108ad57858101830151858201604001528201610891565b506000604082860101526040601f19601f8301168501019250505092915050565b80356001600160a01b03811681146108e557600080fd5b919050565b600080604083850312156108fd57600080fd5b610906836108ce565b946020939093013593505050565b60008060006060848603121561092957600080fd5b610932846108ce565b9250610940602085016108ce565b9150604084013590509250925092565b60006020828403121561096257600080fd5b61096b826108ce565b9392505050565b6000806040838503121561098557600080fd5b61098e836108ce565b915061099c602084016108ce565b90509250929050565b600181811c908216806109b957607f821691505b6020821081036109d957634e487b7160e01b600052602260045260246000fd5b50919050565b8082018082111561031157634e487b7160e01b600052601160045260246000fdfea26469706673582212200e8f58397f45f6477ead54de28849440fa7bb4a4d1925613d2ef2c94820aa1b164736f6c63430008180033","linkReferences":{}},"methodIdentifiers":{"addLiquidity((uint256,uint256,uint256,uint256,int24,int24))":"ee81244e","createAccount(uint256)":"cab13915","getEpoch()":"757991a8","getPosition(uint256)":"eb02c301","onERC721Received(address,address,uint256,bytes)":"150b7a02","uniswapV3MintCallback(uint256,uint256,bytes)":"d3487997"},"id":52}